:100000000C9434000C9449000C9449000C94490061
:100010000C9449000C9449000C9449000C9449003C
:100020000C9449000C9449000C9449000C9449002C
:100030000C9449000C9449000C9449000C9449001C
:100040000C9449000C9449000C9449000C9449000C
:100050000C9449000C9449000C9449000C944900FC
:100060000C9449000C94490011241FBECFEFD8E036
:10007000DEBFCDBF11E0A0E0B1E0E0E9F4E002C0F6
:1000800005900D92A634B107D9F70E941C020C947A
:1000900046020C94000020E030E061E070E09BB18B
:1000A000AB01022E01C0440F0A94EAF7842F809519
:1000B00089238BB94C992DC080E090E060E170E01D
:1000C00004C081E090E060E270E04FEF50E7E2E0D2
:1000D00041505040E040E1F700C0000049B150E01D
:1000E00046235723452BD1F3880F991F880F991F5B
:1000F00080509F4F280F391FF9018081089582E0B9
:1001000090E060E470E0E1CF83E090E060E870E0D0
:10011000DCCF4D9BD6CF4E9BF2CF4F9BF5CF8BB113
:10012000842B8BB92F5F3F4F2430310509F0B7CFB7
:1001300080E008959C01F999FECF32BD21BD60BDDC
:10014000FA9AF99A08959C01F999FECF32BD21BD22
:10015000F89A80B50895CF930E944B00C82F0E9453
:10016000A20180E191E00E94C00161E080E00E9474
:100170009701CC2399F08C2F0E94A8016C2F80E06E
:1001800090E00E949A002FEF83ED90E32150804091
:100190009040E1F700C00000CF9108950E944B000D
:1001A000C82FE7CFCF93C82F80E090E00E94A30034
:1001B00080E090E00E94A300C0538C0FCF9108957F
:1001C000CF93DF930E944B00C82F0E94A20181E2CF
:1001D00091E00E94C001D0E0C33361F42FEF83EDC2
:1001E00090E3215080409040E1F700C00000DF9193
:1001F000CF9108950E944B00C82F8823D9F32FEF89
:1002000087E893E1215080409040E1F700C0000072
:100210008C2F0E94A80161E08D2F0E9497018C2FE6
:100220000E94D2000E94A80160E089E08D0F0E9428
:100230009701DF5FD1CF429A85E08A95F1F7000000
:1002400042980895CF93C82F662341F1409A419870
:10025000229A239A249A259A2D982C982B982A989A
:10026000C7FD2D9AC6FD2C9AC5FD2B9AC4FD2A9A6E
:100270000E941B012D982C982B982A98C3FD2D9A2B
:10028000C2FD2C9AC1FD2B9AC0FD2A9A0E941B0127
:100290002A9A2B9A2C9A2D9ACF9108954098D7CFCD
:1002A0004098419A2298239824982598429A85E06C
:1002B0008A95F1F7000083B182FB882780F9829547
:1002C000807F1B9980621C9980641D998068429888
:1002D00095E09A95F1F70000429A95E09A95F1F72A
:1002E00000001A9981601B9982601C9984601D9995
:1002F0008860429808950E94500187FDFCCF85E1F7
:100300008A95F1F700000C945001CF93C82F0E94FA
:100310007B0160E08C2FCF910C942201CF93C82FEA
:100320000E947B0161E08C2FCF910C94220161111E
:1003300003C080580C9485018054FCCF0E947B013F
:1003400090E0089581E00C94850182E00C94850191
:10035000CF93C82F0E947B01CA3069F491E08034AA
:1003600008F090E0892F8295880F880F807C805854
:10037000CF910C94850161E08C2FCF910C942201D8
:10038000CF93DF93EC018991811103C0DF91CF916D
:1003900008950E94A801CE01F5CFCF93DF93EC0121
:1003A000FE0184912196811103C0DF91CF910895C0
:1003B0000E94A801F5CFCF93C82F389A399A3A9A5C
:1003C000229A239A249A259A8FEF99EF0197F1F7B1
:1003D00000C000002B9A2A9A0E941B018FE19EE424
:1003E0000197F1F700C000000E941B018FEF90E021
:1003F0000197F1F700C000000E941B018FEF90E011
:100400000197F1F700C000002A980E941B018FEFAE
:1004100090E00197F1F700C0000088E20E9485019A
:1004200088E00E9485010E94A20186E00E94850169
:100430008C2FCF910C9485018FE08AB980EF8BB916
:100440008CE00E94DB010E94A2018AE291E00E94FE
:10045000C00161E080E00E94970186E391E00E9484
:10046000C0010E944B00823361F40E94AB002FEF69
:1004700087E893E1215080409040E1F700C0000000
:10048000E2CF8133A1F70E94E000F1CFF894FFCFD3
:100490004423302A433938374236353441333231F8
:1004A000456E746572206E6577206B6579203A2001
:1004B00000537472696E673A200031203A20456E0D
:1004C00063727970740032203A204368616E676508
:0604D000204B65790000DD
:00000001FF
