:100000000C9434000C943E000C943E000C943E0082
:100010000C943E000C943E000C943E000C943E0068
:100020000C943E000C943E000C943E000C943E0058
:100030000C943E000C943E000C943E000C943E0048
:100040000C943E000C943E000C943E000C943E0038
:100050000C943E000C943E000C943E000C943E0028
:100060000C943E000C943E0011241FBECFEFD8E04C
:10007000DEBFCDBF0E9440000C945F000C940000D6
:10008000259A249A239A229A2D9A2C9A2B9A2A9A64
:100090002FEF83ED90E3215080409040E1F700C0C6
:1000A00000002D982C982B982A982FEF83ED90E341
:1000B000215080409040E1F700C00000E5CFF89467
:0200C000FFCF70
:00000001FF
