:100000000C9434000C943E000C943E000C943E0082
:100010000C943E000C943E000C943E000C943E0068
:100020000C943E000C943E000C943E000C943E0058
:100030000C943E000C943E000C943E000C943E0048
:100040000C943E000C943E000C943E000C943E0038
:100050000C943E000C943E000C943E000C943E0028
:100060000C943E000C943E0011241FBECFEFD8E04C
:10007000DEBFCDBF0E9440000C9487000C940000AE
:10008000259A249A239A229A2D9A2FEF81EE94E0B2
:10009000215080409040E1F700C000002D982C9A3C
:1000A0002FEF81EE94E0215080409040E1F700C0B6
:1000B00000002C982B9A2FEF81EE94E02150804085
:1000C0009040E1F700C000002B982A9A2FEF81EEB4
:1000D00094E0215080409040E1F700C000002A9851
:1000E0002B9A2FEF81EE94E0215080409040E1F771
:1000F00000C000002B982C9A2FEF81EE94E0215045
:1001000080409040E1F700C000002C98BDCFF894EB
:02011000FFCF1F
:00000001FF
