:100000000C9434000C943E000C943E000C943E0082
:100010000C943E000C943E000C943E000C943E0068
:100020000C943E000C943E000C943E000C943E0058
:100030000C943E000C943E000C943E000C943E0048
:100040000C943E000C943E000C943E000C943E0038
:100050000C943E000C943E000C943E000C943E0028
:100060000C943E000C943E0011241FBECFEFD8E04C
:10007000DEBFCDBF0E9440000C9465000C940000D0
:10008000569A83E884BD83E085BD80E090E087BD1B
:100090002FEF30E742E0215030404040E1F700C010
:1000A00000000196811521E0920789F78FEF90E01B
:1000B00087BD3FEF40E722E0315040402040E1F76C
:0E00C00000C000000197A0F7E0CFF894FFCF3A
:00000001FF
