:100000000C9434000C943E000C943E000C943E0082
:100010000C943E000C943E000C943E000C943E0068
:100020000C943E000C943E000C943E000C943E0058
:100030000C943E000C943E000C943E000C943E0048
:100040000C943E000C943E000C943E000C943E0038
:100050000C943E000C943E000C943E000C943E0028
:100060000C943E000C943E0011241FBECFEFD8E04C
:10007000DEBFCDBF0E9446000C945F000C940000D0
:10008000EAE7F0E080818064808308958FEF8AB989
:1000900081E680937C0087E880937A0082E08093F9
:1000A0007E000E94400080917A0084FFFCCF809106
:1000B0007A0080937A00809179008BB9F2CFF8941E
:0200C000FFCF70
:00000001FF
