:100000000C9434000C943E000C943E000C943E0082
:100010000C943E000C943E000C943E000C943E0068
:100020000C943E000C943E000C943E000C943E0058
:100030000C943E000C943E000C943E000C943E0048
:100040000C943E000C943E000C943E000C943E0038
:100050000C943E000C943E000C943E000C943E0028
:100060000C943E000C943E0011241FBECFEFD8E04C
:10007000DEBFCDBF0E9455000C9469000C940000B7
:1000800081E680937C0087E880937A0082E0809309
:100090007E000895EAE7F0E080818064808308951F
:1000A00083E884BD83E085BD08958FEF8AB90E94FF
:1000B00040000E94500080917A0084FFFCCF809124
:1000C0007A0080937A008091790087BD0E944A006F
:0600D000F2CFF894FFCF0F
:00000001FF
