:100000000C9434000C943E000C943E000C943E0082
:100010000C943E000C943E000C943E000C943E0068
:100020000C943E000C943E000C943E000C943E0058
:100030000C943E000C943E000C943E000C943E0048
:100040000C943E000C943E000C943E000C943E0038
:100050000C943E000C943E000C943E000C943E0028
:100060000C943E000C943E0011241FBECFEFD8E04C
:10007000DEBFCDBF0E9440000C9462000C940000D3
:1000800084B18F6384B9579820E030E080E090E03D
:100090004F9B04C0892B11F42F5F3F4F49B1042EB1
:1000A000000C550B852F881F8827881F90E025B9E5
:1000B0004FEF51EE64E0415050406040E1F700C026
:0800C0000000E6CFF894FFCF29
:00000001FF
