:100000000C9434000C9448000C9446000C94460068
:100010000C9446000C9446000C9446000C94460048
:100020000C9446000C9446000C9446000C94460038
:100030000C9446000C9446000C9446000C94460028
:100040000C9446000C9446000C9446000C94460018
:100050000C9446000C9446000C9446000C94460008
:100060000C9446000C94460011241FBECFEFD8E03C
:10007000DEBFCDBF21E0A0E0B1E001C01D92A23003
:10008000B207E1F70E946B000C947C000C94000016
:100090001F920F920FB60F9211242F938F939F935D
:1000A0002FEF89E698E1215080409040E1F700C0B1
:1000B000000080910001909101010196909301014F
:1000C0008093000185B99F918F912F910F900FBE62
:1000D0000F901F90189584B18F6384B952988091C6
:1000E0006900826080936900809169008E7F8093AF
:0C00F00069007894E89AFFCFF894FFCFE5
:00000001FF
