:100000000C9434000C943E000C943E000C943E0082
:100010000C943E000C943E000C943E000C943E0068
:100020000C943E000C943E000C943E000C943E0058
:100030000C943E000C943E000C943E000C943E0048
:100040000C943E000C943E000C943E000C943E0038
:100050000C943E000C943E000C943E000C943E0028
:100060000C943E000C943E0011241FBECFEFD8E04C
:10007000DEBFCDBF0E944B000C9457000C940000D3
:1000800016BC14BC85E085BDA89BFECF14BC15BC76
:1000900081E085BB0895259A10E285B1812785B955
:1000A000CAE0D0E00E9440002197E1F7F6CFF89433
:0200B000FFCF80
:00000001FF
