:100000000C9434000C943E000C943E000C943E0082
:100010000C943E000C943E000C943E000C943E0068
:100020000C943E000C943E000C943E000C943E0058
:100030000C943E000C9440000C943E000C943E0046
:100040000C943E000C943E000C943E000C943E0038
:100050000C943E000C943E000C943E000C943E0028
:100060000C943E000C943E0011241FBECFEFD8E04C
:10007000DEBFCDBF0E9458000C94AF000C9400006E
:100080001F920F920FB60F9211248F939F9395B1E9
:1000900080E2892785B98CED9BE090938500809361
:1000A00084009F918F910F900FBE0F901F90189515
:1000B0008CED9BE0909385008093840084B18F62E7
:1000C00084B91092800084E08093810078948091BC
:1000D0006F00816080936F002B9A2FEF83ED90E388
:1000E000215080409040E1F700C000002B982A9AF0
:1000F0002FEF83ED90E3215080409040E1F700C066
:1001000000002A98299A2FEF83ED90E32150804038
:100110009040E1F700C000002998289A2FEF83ED66
:1001200090E3215080409040E1F700C00000289803
:10013000299A2FEF83ED90E3215080409040E1F722
:1001400000C0000029982A9A2FEF83ED90E32150F8
:1001500080409040E1F700C000002A98BDCFF8949D
:02016000FFCFCF
:00000001FF
