:100000000C9434000C9446000C9446000C9446006A
:100010000C9446000C9446000C9446000C94460048
:100020000C9446000C9446000C9446000C94460038
:100030000C9446000C9446000C9446000C94460028
:100040000C9448000C9446000C9446000C94460016
:100050000C9446000C9446000C9446000C94460008
:100060000C9446000C94460011241FBECFEFD8E03C
:10007000DEBFCDBF21E0A0E0B1E001C01D92A23003
:10008000B207E1F70E946D000C947C000C94000014
:100090001F920F920FB60F9211248F939F9380910E
:1000A000000190910101823391054CF095B180E2FD
:1000B000892785B9109201011092000105C00196AF
:1000C000909301018093000183E886BD9F918F91F9
:1000D0000F900FBE0F901F90189583E886BD84B1D6
:1000E000886284B914BC84E085BD789480916E00E8
:0C00F000816080936E00FFCFF894FFCF7A
:00000001FF
