:100000000C9434000C9446000C9446000C9446006A
:100010000C9446000C9446000C9446000C94460048
:100020000C9446000C9446000C9446000C94460038
:100030000C9446000C946D000C9446000C94460001
:100040000C9448000C9446000C9446000C94460016
:100050000C9446000C9446000C9446000C94460008
:100060000C9446000C94460011241FBECFEFD8E03C
:10007000DEBFCDBF21E0A0E0B1E001C01D92A23003
:10008000B207E1F70E9485000C94A3000C940000D5
:100090001F920F920FB60F9211248F939F9380910E
:1000A000000190910101893191054CF095B180E2F8
:1000B000892785B9109201011092000105C00196AF
:1000C000909301018093000183E886BD9F918F91F9
:1000D0000F900FBE0F901F9018951F920F920FB6A2
:1000E0000F9211248F939F9395B188E0892785B94A
:1000F0008EEF9CEA90938500809384009F918F916E
:100100000F900FBE0F901F90189583E886BD8EEE5E
:1001100095E8909385008093840084B1886284B9C7
:1001200014BC84E085BD1092800080938100789497
:1001300080916E00816080936E0080916F0081607D
:0A01400080936F00FFCFF894FFCF0B
:00000001FF
