:100000000C9434000C943E000C943E000C943E0082
:100010000C943E000C943E000C943E000C943E0068
:100020000C943E000C943E000C943E000C943E0058
:100030000C943E000C943E000C943E000C943E0048
:100040000C943E000C943E000C943E000C943E0038
:100050000C943E000C943E000C943E000C943E0028
:100060000C943E000C943E0011241FBECFEFD8E04C
:10007000DEBFCDBF0E944B000C9453000C940000D7
:1000800016BC14BC81E085BDA89BFECF14BC15BC7A
:1000900081E085BB0895259A2D9A0E9440002D98F5
:0A00A0000E944000F9CFF894FFCF52
:00000001FF
