:100000000C9434000C943E000C943E000C943E0082
:100010000C943E000C943E000C943E000C943E0068
:100020000C943E000C943E000C943E000C943E0058
:100030000C943E000C943E000C943E000C943E0048
:100040000C943E000C943E000C943E000C943E0038
:100050000C943E000C943E000C943E000C943E0028
:100060000C943E000C943E0011241FBECFEFD8E04C
:10007000DEBFCDBF0E9474000C94A7000C9400005A
:1000800087E690E09093C5008093C40088E1809358
:10009000C10086E08093C20008959091C00095FF52
:1000A000FCCF8093C60008958091C00087FFFCCFED
:1000B0008091C60008959FEB980F9A3140F490E02C
:1000C000CE976AE170E00E947F008F5B08959FE900
:1000D000980F9A3140F490E08E5591096AE170E0F2
:1000E0000E947F008F5908950E9440000E94540092
:1000F0008A3011F00E945B000E944D00F7CF97FB01
:10010000072E16F4009407D077FD09D00E949300C3
:1001100007FC05D03EF4909581959F4F089570950A
:1001200061957F4F0895AA1BBB1B51E107C0AA1F11
:10013000BB1FA617B70710F0A61BB70B881F991F88
:100140005A95A9F780959095BC01CD010895F89432
:02015000FFCFDF
:00000001FF
