:100000000C9434000C943E000C943E000C943E0082
:100010000C943E000C943E000C943E000C943E0068
:100020000C943E000C943E000C943E000C943E0058
:100030000C943E000C943E000C943E000C943E0048
:100040000C943E000C943E000C943E000C943E0038
:100050000C943E000C943E000C943E000C943E0028
:100060000C943E000C943E0011241FBECFEFD8E04C
:10007000DEBFCDBF0E946C000C94C7000C94000042
:100080009C01F999FECF32BD21BD60BDFA9AF99A63
:1000900008959C01F999FECF32BD21BDF89A80B533
:1000A000089587E690E09093C5008093C40088E1AE
:1000B0008093C10086E08093C20008959091C000B3
:1000C00095FFFCCF8093C60008958091C00087FF04
:1000D000FCCF8091C6000895CDB7DEB7D4500FB6DF
:1000E000F894DEBF0FBECDBF1A821982FE0133968F
:1000F0008EEF93E0DF019C011D9221503040E1F72B
:100100000E9451008E010F5F1F4F6801E12CF12CFE
:100110000E9465008A3039F0D6018D936D01BFEFE2
:10012000EB1AFB0AF5CFF801EE0DFF1D1082F80166
:1001300001900020E9F731977F01E01AF10A580198
:10014000C12CD12CCE14DF04C4F0E12CF12CC7015A
:100150000E9449002FEFE21AF20AE11434E0F3069C
:10016000B1F778018CEFF81AD8018D918D010E94BA
:100170005E000E151F05C1F7FFCFF50161915F010C
:10018000C6010E944000FFEFCF1ADF0ADBCFF894D0
:02019000FFCF9F
:00000001FF
