:100000000C9434000C9449000C9449000C94490061
:100010000C9449000C9449000C9449000C9449003C
:100020000C9449000C9449000C9449000C9449002C
:100030000C9449000C9449000C9449000C9449001C
:100040000C9449000C9449000C9449000C9449000C
:100050000C9449000C9449000C9449000C944900FC
:100060000C9449000C94490011241FBECFEFD8E036
:10007000DEBFCDBF11E0A0E0B1E0EAE9F1E002C0EF
:1000800005900D92AE30B107D9F70E9477000C941D
:10009000CB000C9400009C01F999FECF32BD21BD2C
:1000A00060BDFA9AF99A08959C01F999FECF32BD84
:1000B00021BDF89A80B5089587E690E09093C50039
:1000C0008093C40088E18093C10086E08093C200E1
:1000D00008959091C00095FFFCCF8093C6000895CD
:1000E0008091C00087FFFCCF8091C6000895CDB7F6
:1000F000DEB7C157D1090FB6F894DEBF0FBECDBF32
:100100007E0185E6E80EF11C2DE0E0E0F1E0D7018C
:1001100001900D922A95E1F7F70101900020E9F78F
:1001200031978F010E191F09C12CD12CC016D10691
:10013000ACF0CE0101967C015C01C12CD12CC01623
:10014000D106B4F0F701E00FF11F10820E945C00AD
:10015000C12CD12CC016D106ACF0FFCFF7016191B4
:100160007F01C6010E944B00FFEFCF1ADF0ADECFEE
:10017000C6010E945400F50181935F01FFEFCF1A81
:10018000DF0ADDCFF70181917F010E946900FFEF57
:0A019000CF1ADF0ADFCFF894FFCF8B
:0E019A0048656C6C6F20576F726C642100001A
:00000001FF
