:100000000C9434000C9449000C9449000C94490061
:100010000C9449000C9449000C9449000C9449003C
:100020000C9449000C9449000C9449000C9449002C
:100030000C9449000C9449000C9449000C9449001C
:100040000C9449000C9449000C9449000C9449000C
:100050000C9449000C9449000C9449000C944900FC
:100060000C9449000C94490011241FBECFEFD8E036
:10007000DEBFCDBF11E0A0E0B1E0E4E7F7E002C0F1
:1000800005900D92A630B107D9F70E9477000C9425
:10009000B8030C9400009C01F999FECF32BD21BD3C
:1000A00060BDFA9AF99A08959C01F999FECF32BD84
:1000B00021BDF89A80B5089587E690E09093C50039
:1000C0008093C40088E18093C10086E08093C200E1
:1000D00008959091C00095FFFCCF8093C6000895CD
:1000E0008091C00087FFFCCF8091C6000895CDB7F6
:1000F000DEB72A970FB6F894DEBF0FBECDBF60E023
:1001000071E080E090E00E944B0080E090E00E946F
:100110005400282F082E000C330B3F938F9382E05E
:1001200091E09F938F938E010F5F1F4F1F930F934B
:100130000E94B9000E945C0068010F900F900F9020
:100140000F900F900F90E12CF12CF80101900020FE
:10015000E9F73197E01BF10BEE16FF0608F0FFCF31
:10016000F60181916F010E946900FFEFEF1AFF0A0B
:10017000ECCFAEE0B0E0EFEBF0E00C948F030D8934
:100180001E8986E08C831A8309838FEF9FE79E8305
:100190008D83AE01475E5F4F6F89788DCE010196EA
:1001A0000E94DC002F813885020F131FF801108296
:1001B0002E96E4E00C94AB03AFE0B0E0E2EEF0E0AA
:1001C0000C9484036C017B018A01DC0117961C925C
:1001D0001E92169713968C9181FFECC12AE0522E45
:1001E000F6019381F70193FD859193FF81917F0142
:1001F000882309F473C0853239F493FD859193FF08
:1002000081917F01853229F4B60190E00E94F302CA
:10021000E7CF912C612C712CFFE1F71508F446C053
:100220008B32C9F1F8F48032C1F1833209F43BC05A
:10023000833609F48AC0833709F493C0833509F003
:10024000B6C0F801A190B1908F01692D70E076FCE5
:1002500002C06FEF7FEFC5010E94DD024C01689480
:1002600077F85FC08D32E1F0803351F020ED280F38
:100270002A3048F18E3209F039C0689476F802C00D
:10028000689470F8F70193FD859193FF81917F0148
:100290008111C2CF33C0689471F8689472F8F2CFBC
:1002A000689473F8EFCF689474F8ECCF77FC26C0AD
:1002B00020ED280F2A3070F476FE05C0959C200DA5
:1002C0001124922EDFCF659C200D1124622E68949C
:1002D00075F8D8CF8E3251F476FECFCFD601169670
:1002E0008D919C912F96EFE00C94A0038C3619F41D
:1002F000689477F8C7CF883609F4C4CF982F9F7DCC
:100300009554933008F094CF0C5F1F4F8FE389838F
:1003100088248394912CAE014F5F5F4F5A01E8947B
:1003200077F873FC05C0862D90E08816990640F199
:100330008114910461F5662009F452CFB60180E280
:1003400090E00E94F3026A94F6CFD8018C918983E1
:100350000E5F1F4F88248394912CFE0131965F011C
:10036000DECFD801AD90BD908D01692D70E076FC97
:1003700002C06FEF7FEFC5010E94E8024C01CFCFB2
:10038000B60180E290E00E94F3026A94CCCFF501BE
:1003900077FC859177FE81915F01B60190E00E9424
:1003A000F30261106A94F1E08F1A9108C1CF84368C
:1003B00019F0893609F081C0F80177FE77C06191A4
:1003C0007191819191918F01272D2F76822E97FF28
:1003D00009C090958095709561957F4F8F4F9F4F85
:1003E000689487F82AE030E0AE014F5F5F4F5A0112
:1003F0000E9423038A19A82EBA2C782C86FE0CC0E2
:10040000E89470F8A91440F484FE05C082FC03C08F
:10041000782D7E7E772EB92C74FEA5C0FE01EA0DE4
:10042000F11D8081803309F097C0872D897E782E59
:1004300073FC0EC070FEA6C09A2CB61418F4960C6D
:100440009B18B62C862D8B196B1408F480E0B80E1F
:10045000B61408F099C06B1874FE98C0B60180E31A
:1004600090E00E94F30272FE09C088E590E071FC02
:1004700002C088E790E0B6010E94F302A91408F4D4
:1004800092C0AA94B12C9FEFA91AB90ADE01119665
:100490004D01AA0EBB1EF50182915F01B60190E0ED
:1004A0000E94F3028A149B04B1F745CF61917191C8
:1004B000072E000C880B990B86CF872CE89484F8C4
:1004C0002AE030E0853769F0572D597F852E803737
:1004D00071F118F5883571F18F3609F0FFCE28E0FB
:1004E00030E0F80187FE2EC081919191A191B191E8
:1004F0008C879D87AE87BF878F01BE016F5F7F4F5F
:100500005B01AB016C857D858E859F850E942303F1
:100510008A19A82EE89487F86FCF883709F0DECEC5
:1005200084FE02C0689482F820E130E0DACF68945B
:1005300084F8F6CF74FE03C0652F6660862E20E136
:1005400032E0CFCF81919191AC0160E070E04C87B7
:100550005D876E877F87D0CF72FC02C0B39468CF6F
:10056000B394B39465CF872D8678882309F460CF40
:10057000F5CFB60180E290E00E94F30283948614E6
:10058000C0F360CF8B2CFBCF612C66CF872D867894
:10059000882309F473CF8BE271FE80E277FC8DE251
:1005A000B60190E069CFB60180E390E00E94F302CB
:1005B0009A9464CF8FEF9FEF95CEFC010590615028
:1005C00070400110D8F7809590958E0F9F1F089569
:1005D000FC016150704001900110D8F78095909512
:1005E0008E0F9F1F08950F931F93CF93DF93182FA4
:1005F000092FEB018B8181FD09C01FEF0FEF812FC8
:10060000902FDF91CF911F910F91089582FF14C019
:100610002E813F818C819D81281739073CF4E88128
:10062000F981CF0101969983888310838E819F8100
:1006300001969F838E83E3CFE885F985812F099505
:10064000892BA1F3DACFFA01AA27283051F1203102
:1006500081F1E8946F936E7F6E5F7F4F8F4F9F4F56
:10066000AF4FB1E03ED0B4E03CD0670F781F891F98
:100670009A1FA11D680F791F8A1F911DA11D6A0F66
:10068000711D811D911DA11D20D009F468943F9119
:100690002AE0269F11243019305D3193DEF6CF0118
:1006A0000895462F4770405D4193B3E00FD0C9F7DE
:1006B000F6CF462F4F70405D4A3318F0495D31FD4B
:1006C0004052419302D0A9F7EACFB4E0A69597959E
:1006D000879577956795BA95C9F700976105710574
:1006E00008959B01AC010A2E0694579547953795BE
:1006F0002795BA95C9F7620F731F841F951FA01D18
:1007000008952F923F924F925F926F927F928F92B5
:100710009F92AF92BF92CF92DF92EF92FF920F9390
:100720001F93CF93DF93CDB7DEB7CA1BDB0B0FB69A
:10073000F894DEBF0FBECDBF09942A883988488857
:100740005F846E847D848C849B84AA84B984C884ED
:10075000DF80EE80FD800C811B81AA81B981CE0FE4
:10076000D11D0FB6F894DEBF0FBECDBFED010895C9
:04077000F894FFCF2B
:06077400530025640000A3
:00000001FF
